{
  "_format": "hh-sol-artifact-1",
  "contractName": "NFTMarket",
  "sourceName": "contracts/NFTMarket.sol",
  "abi": [
    {
      "inputs": [],
      "stateMutability": "nonpayable",
      "type": "constructor"
    },
    {
      "anonymous": false,
      "inputs": [
        {
          "indexed": true,
          "internalType": "uint256",
          "name": "itemId",
          "type": "uint256"
        },
        {
          "indexed": true,
          "internalType": "address",
          "name": "nftContract",
          "type": "address"
        },
        {
          "indexed": true,
          "internalType": "uint256",
          "name": "tokenId",
          "type": "uint256"
        },
        {
          "indexed": false,
          "internalType": "address",
          "name": "seller",
          "type": "address"
        },
        {
          "indexed": false,
          "internalType": "address",
          "name": "owner",
          "type": "address"
        },
        {
          "indexed": false,
          "internalType": "uint256",
          "name": "price",
          "type": "uint256"
        },
        {
          "indexed": false,
          "internalType": "bool",
          "name": "sold",
          "type": "bool"
        }
      ],
      "name": "MarketItemCreated",
      "type": "event"
    },
    {
      "inputs": [
        {
          "internalType": "address",
          "name": "nftContract",
          "type": "address"
        },
        {
          "internalType": "uint256",
          "name": "tokenId",
          "type": "uint256"
        },
        {
          "internalType": "uint256",
          "name": "price",
          "type": "uint256"
        }
      ],
      "name": "createMarketItem",
      "outputs": [],
      "stateMutability": "payable",
      "type": "function"
    },
    {
      "inputs": [
        {
          "internalType": "address",
          "name": "nftContract",
          "type": "address"
        },
        {
          "internalType": "uint256",
          "name": "itemId",
          "type": "uint256"
        }
      ],
      "name": "createMarketSale",
      "outputs": [],
      "stateMutability": "payable",
      "type": "function"
    },
    {
      "inputs": [],
      "name": "fetchMarketItems",
      "outputs": [
        {
          "components": [
            {
              "internalType": "uint256",
              "name": "itemId",
              "type": "uint256"
            },
            {
              "internalType": "address",
              "name": "nftContract",
              "type": "address"
            },
            {
              "internalType": "uint256",
              "name": "tokenId",
              "type": "uint256"
            },
            {
              "internalType": "address payable",
              "name": "seller",
              "type": "address"
            },
            {
              "internalType": "address payable",
              "name": "owner",
              "type": "address"
            },
            {
              "internalType": "uint256",
              "name": "price",
              "type": "uint256"
            },
            {
              "internalType": "bool",
              "name": "sold",
              "type": "bool"
            }
          ],
          "internalType": "struct NFTMarket.MarketItem[]",
          "name": "",
          "type": "tuple[]"
        }
      ],
      "stateMutability": "view",
      "type": "function"
    },
    {
      "inputs": [],
      "name": "fetchNFTsBought",
      "outputs": [
        {
          "components": [
            {
              "internalType": "uint256",
              "name": "itemId",
              "type": "uint256"
            },
            {
              "internalType": "address",
              "name": "nftContract",
              "type": "address"
            },
            {
              "internalType": "uint256",
              "name": "tokenId",
              "type": "uint256"
            },
            {
              "internalType": "address payable",
              "name": "seller",
              "type": "address"
            },
            {
              "internalType": "address payable",
              "name": "owner",
              "type": "address"
            },
            {
              "internalType": "uint256",
              "name": "price",
              "type": "uint256"
            },
            {
              "internalType": "bool",
              "name": "sold",
              "type": "bool"
            }
          ],
          "internalType": "struct NFTMarket.MarketItem[]",
          "name": "",
          "type": "tuple[]"
        }
      ],
      "stateMutability": "view",
      "type": "function"
    },
    {
      "inputs": [],
      "name": "fetchNFTsListed",
      "outputs": [
        {
          "components": [
            {
              "internalType": "uint256",
              "name": "itemId",
              "type": "uint256"
            },
            {
              "internalType": "address",
              "name": "nftContract",
              "type": "address"
            },
            {
              "internalType": "uint256",
              "name": "tokenId",
              "type": "uint256"
            },
            {
              "internalType": "address payable",
              "name": "seller",
              "type": "address"
            },
            {
              "internalType": "address payable",
              "name": "owner",
              "type": "address"
            },
            {
              "internalType": "uint256",
              "name": "price",
              "type": "uint256"
            },
            {
              "internalType": "bool",
              "name": "sold",
              "type": "bool"
            }
          ],
          "internalType": "struct NFTMarket.MarketItem[]",
          "name": "",
          "type": "tuple[]"
        }
      ],
      "stateMutability": "view",
      "type": "function"
    },
    {
      "inputs": [],
      "name": "getListingPrice",
      "outputs": [
        {
          "internalType": "uint256",
          "name": "",
          "type": "uint256"
        }
      ],
      "stateMutability": "view",
      "type": "function"
    }
  ],
  "bytecode": "0x60806040526658d15e1762800060045534801561001b57600080fd5b50600160008190555033600360006101000a81548173ffffffffffffffffffffffffffffffffffffffff021916908373ffffffffffffffffffffffffffffffffffffffff1602179055506118c0806100746000396000f3fe6080604052600436106100555760003560e01c80630f08efe01461005a57806312e855851461008557806358eb2df5146100b0578063c015ca7e146100cc578063c23b139e146100f7578063deb3dee314610113575b600080fd5b34801561006657600080fd5b5061006f61013e565b60405161007c9190611509565b60405180910390f35b34801561009157600080fd5b5061009a610433565b6040516100a791906115ab565b60405180910390f35b6100ca60048036038101906100c59190611245565b61043d565b005b3480156100d857600080fd5b506100e16107a1565b6040516100ee9190611509565b60405180910390f35b610111600480360381019061010c9190611209565b610b11565b005b34801561011f57600080fd5b50610128610dca565b6040516101359190611509565b60405180910390f35b6060600061014c600161113a565b9050600061015a600261113a565b610164600161113a565b61016e9190611666565b90506000808267ffffffffffffffff8111156101b3577f4e487b7100000000000000000000000000000000000000000000000000000000600052604160045260246000fd5b6040519080825280602002602001820160405280156101ec57816020015b6101d961115e565b8152602001906001900390816101d15790505b5090506000600190505b84811161042857600073ffffffffffffffffffffffffffffffffffffffff166005600083815260200190815260200160002060040160009054906101000a900473ffffffffffffffffffffffffffffffffffffffff1673ffffffffffffffffffffffffffffffffffffffff16141561041557600560008281526020019081526020016000206040518060e0016040529081600082015481526020016001820160009054906101000a900473ffffffffffffffffffffffffffffffffffffffff1673ffffffffffffffffffffffffffffffffffffffff1673ffffffffffffffffffffffffffffffffffffffff168152602001600282015481526020016003820160009054906101000a900473ffffffffffffffffffffffffffffffffffffffff1673ffffffffffffffffffffffffffffffffffffffff1673ffffffffffffffffffffffffffffffffffffffff1681526020016004820160009054906101000a900473ffffffffffffffffffffffffffffffffffffffff1673ffffffffffffffffffffffffffffffffffffffff1673ffffffffffffffffffffffffffffffffffffffff168152602001600582015481526020016006820160009054906101000a900460ff1615151515815250508284815181106103fa577f4e487b7100000000000000000000000000000000000000000000000000000000600052603260045260246000fd5b60200260200101819052506001836104129190611610565b92505b8080610420906116f4565b9150506101f6565b508094505050505090565b6000600454905090565b60026000541415610483576040517f08c379a000000000000000000000000000000000000000000000000000000000815260040161047a9061158b565b60405180910390fd5b6002600081905550600081116104ce576040517f08c379a00000000000000000000000000000000000000000000000000000000081526004016104c59061154b565b60405180910390fd5b6004543414610512576040517f08c379a00000000000000000000000000000000000000000000000000000000081526004016105099061152b565b60405180910390fd5b61051c6001611148565b6000610528600161113a565b90506040518060e001604052808281526020018573ffffffffffffffffffffffffffffffffffffffff1681526020018481526020013373ffffffffffffffffffffffffffffffffffffffff168152602001600073ffffffffffffffffffffffffffffffffffffffff16815260200183815260200160001515815250600560008381526020019081526020016000206000820151816000015560208201518160010160006101000a81548173ffffffffffffffffffffffffffffffffffffffff021916908373ffffffffffffffffffffffffffffffffffffffff1602179055506040820151816002015560608201518160030160006101000a81548173ffffffffffffffffffffffffffffffffffffffff021916908373ffffffffffffffffffffffffffffffffffffffff16021790555060808201518160040160006101000a81548173ffffffffffffffffffffffffffffffffffffffff021916908373ffffffffffffffffffffffffffffffffffffffff16021790555060a0820151816005015560c08201518160060160006101000a81548160ff0219169083151502179055509050508373ffffffffffffffffffffffffffffffffffffffff166323b872dd3330866040518463ffffffff1660e01b81526004016107099392919061148d565b600060405180830381600087803b15801561072357600080fd5b505af1158015610737573d6000803e3d6000fd5b50505050828473ffffffffffffffffffffffffffffffffffffffff16827f045dfa01dcba2b36aba1d3dc4a874f4b0c5d2fbeb8d2c4b34a7d88c8d8f929d133600087600060405161078b94939291906114c4565b60405180910390a4506001600081905550505050565b606060006107af600161113a565b90506000806000600190505b83811161084f573373ffffffffffffffffffffffffffffffffffffffff166005600083815260200190815260200160002060030160009054906101000a900473ffffffffffffffffffffffffffffffffffffffff1673ffffffffffffffffffffffffffffffffffffffff16141561083c576001836108399190611610565b92505b8080610847906116f4565b9150506107bb565b5060008267ffffffffffffffff811115610892577f4e487b7100000000000000000000000000000000000000000000000000000000600052604160045260246000fd5b6040519080825280602002602001820160405280156108cb57816020015b6108b861115e565b8152602001906001900390816108b05790505b5090506000600190505b848111610b06573373ffffffffffffffffffffffffffffffffffffffff166005600083815260200190815260200160002060030160009054906101000a900473ffffffffffffffffffffffffffffffffffffffff1673ffffffffffffffffffffffffffffffffffffffff161415610af357600560008281526020019081526020016000206040518060e0016040529081600082015481526020016001820160009054906101000a900473ffffffffffffffffffffffffffffffffffffffff1673ffffffffffffffffffffffffffffffffffffffff1673ffffffffffffffffffffffffffffffffffffffff168152602001600282015481526020016003820160009054906101000a900473ffffffffffffffffffffffffffffffffffffffff1673ffffffffffffffffffffffffffffffffffffffff1673ffffffffffffffffffffffffffffffffffffffff1681526020016004820160009054906101000a900473ffffffffffffffffffffffffffffffffffffffff1673ffffffffffffffffffffffffffffffffffffffff1673ffffffffffffffffffffffffffffffffffffffff168152602001600582015481526020016006820160009054906101000a900460ff161515151581525050828481518110610ad8577f4e487b7100000000000000000000000000000000000000000000000000000000600052603260045260246000fd5b6020026020010181905250600183610af09190611610565b92505b8080610afe906116f4565b9150506108d5565b508094505050505090565b60026000541415610b57576040517f08c379a0000000000000000000000000000000000000000000000000000000008152600401610b4e9061158b565b60405180910390fd5b6002600081905550600060056000838152602001908152602001600020600501549050600060056000848152602001908152602001600020600201549050813414610bd7576040517f08c379a0000000000000000000000000000000000000000000000000000000008152600401610bce9061156b565b60405180910390fd5b6005600084815260200190815260200160002060030160009054906101000a900473ffffffffffffffffffffffffffffffffffffffff1673ffffffffffffffffffffffffffffffffffffffff166108fc349081150290604051600060405180830381858888f19350505050158015610c53573d6000803e3d6000fd5b508373ffffffffffffffffffffffffffffffffffffffff166323b872dd3033846040518463ffffffff1660e01b8152600401610c919392919061148d565b600060405180830381600087803b158015610cab57600080fd5b505af1158015610cbf573d6000803e3d6000fd5b50505050336005600085815260200190815260200160002060040160006101000a81548173ffffffffffffffffffffffffffffffffffffffff021916908373ffffffffffffffffffffffffffffffffffffffff16021790555060016005600085815260200190815260200160002060060160006101000a81548160ff021916908315150217905550610d516002611148565b600360009054906101000a900473ffffffffffffffffffffffffffffffffffffffff1673ffffffffffffffffffffffffffffffffffffffff166108fc6004549081150290604051600060405180830381858888f19350505050158015610dbb573d6000803e3d6000fd5b50505060016000819055505050565b60606000610dd8600161113a565b90506000806000600190505b838111610e78573373ffffffffffffffffffffffffffffffffffffffff166005600083815260200190815260200160002060040160009054906101000a900473ffffffffffffffffffffffffffffffffffffffff1673ffffffffffffffffffffffffffffffffffffffff161415610e6557600183610e629190611610565b92505b8080610e70906116f4565b915050610de4565b5060008267ffffffffffffffff811115610ebb577f4e487b7100000000000000000000000000000000000000000000000000000000600052604160045260246000fd5b604051908082528060200260200182016040528015610ef457816020015b610ee161115e565b815260200190600190039081610ed95790505b5090506000600190505b84811161112f573373ffffffffffffffffffffffffffffffffffffffff166005600083815260200190815260200160002060040160009054906101000a900473ffffffffffffffffffffffffffffffffffffffff1673ffffffffffffffffffffffffffffffffffffffff16141561111c57600560008281526020019081526020016000206040518060e0016040529081600082015481526020016001820160009054906101000a900473ffffffffffffffffffffffffffffffffffffffff1673ffffffffffffffffffffffffffffffffffffffff1673ffffffffffffffffffffffffffffffffffffffff168152602001600282015481526020016003820160009054906101000a900473ffffffffffffffffffffffffffffffffffffffff1673ffffffffffffffffffffffffffffffffffffffff1673ffffffffffffffffffffffffffffffffffffffff1681526020016004820160009054906101000a900473ffffffffffffffffffffffffffffffffffffffff1673ffffffffffffffffffffffffffffffffffffffff1673ffffffffffffffffffffffffffffffffffffffff168152602001600582015481526020016006820160009054906101000a900460ff161515151581525050828481518110611101577f4e487b7100000000000000000000000000000000000000000000000000000000600052603260045260246000fd5b60200260200101819052506001836111199190611610565b92505b8080611127906116f4565b915050610efe565b508094505050505090565b600081600001549050919050565b6001816000016000828254019250508190555050565b6040518060e0016040528060008152602001600073ffffffffffffffffffffffffffffffffffffffff16815260200160008152602001600073ffffffffffffffffffffffffffffffffffffffff168152602001600073ffffffffffffffffffffffffffffffffffffffff168152602001600081526020016000151581525090565b6000813590506111ee8161185c565b92915050565b60008135905061120381611873565b92915050565b6000806040838503121561121c57600080fd5b600061122a858286016111df565b925050602061123b858286016111f4565b9150509250929050565b60008060006060848603121561125a57600080fd5b6000611268868287016111df565b9350506020611279868287016111f4565b925050604061128a868287016111f4565b9150509250925092565b60006112a083836113e1565b60e08301905092915050565b6112b5816116ac565b82525050565b6112c48161169a565b82525050565b6112d38161169a565b82525050565b60006112e4826115d6565b6112ee81856115ee565b93506112f9836115c6565b8060005b8381101561132a5781516113118882611294565b975061131c836115e1565b9250506001810190506112fd565b5085935050505092915050565b611340816116be565b82525050565b61134f816116be565b82525050565b60006113626038836115ff565b915061136d8261176c565b604082019050919050565b6000611385601e836115ff565b9150611390826117bb565b602082019050919050565b60006113a86040836115ff565b91506113b3826117e4565b604082019050919050565b60006113cb601f836115ff565b91506113d682611833565b602082019050919050565b60e0820160008201516113f7600085018261146f565b50602082015161140a60208501826112bb565b50604082015161141d604085018261146f565b50606082015161143060608501826112ac565b50608082015161144360808501826112ac565b5060a082015161145660a085018261146f565b5060c082015161146960c0850182611337565b50505050565b611478816116ea565b82525050565b611487816116ea565b82525050565b60006060820190506114a260008301866112ca565b6114af60208301856112ca565b6114bc604083018461147e565b949350505050565b60006080820190506114d960008301876112ca565b6114e660208301866112ca565b6114f3604083018561147e565b6115006060830184611346565b95945050505050565b6000602082019050818103600083015261152381846112d9565b905092915050565b6000602082019050818103600083015261154481611355565b9050919050565b6000602082019050818103600083015261156481611378565b9050919050565b600060208201905081810360008301526115848161139b565b9050919050565b600060208201905081810360008301526115a4816113be565b9050919050565b60006020820190506115c0600083018461147e565b92915050565b6000819050602082019050919050565b600081519050919050565b6000602082019050919050565b600082825260208201905092915050565b600082825260208201905092915050565b600061161b826116ea565b9150611626836116ea565b9250827fffffffffffffffffffffffffffffffffffffffffffffffffffffffffffffffff0382111561165b5761165a61173d565b5b828201905092915050565b6000611671826116ea565b915061167c836116ea565b92508282101561168f5761168e61173d565b5b828203905092915050565b60006116a5826116ca565b9050919050565b60006116b7826116ca565b9050919050565b60008115159050919050565b600073ffffffffffffffffffffffffffffffffffffffff82169050919050565b6000819050919050565b60006116ff826116ea565b91507fffffffffffffffffffffffffffffffffffffffffffffffffffffffffffffffff8214156117325761173161173d565b5b600182019050919050565b7f4e487b7100000000000000000000000000000000000000000000000000000000600052601160045260246000fd5b7f76616c75652073656e7420666f72206c697374696e67207478206d757374206260008201527f6520657175616c20746f206c697374696e672070726963650000000000000000602082015250565b7f5072696365206d757374206265206174206c65617374206f6e65207765690000600082015250565b7f706c65617365207375626d6974207468652061736b696e67207072696365206960008201527f6e206f7264657220746f20636f6d706c65746520746865207075726368617365602082015250565b7f5265656e7472616e637947756172643a207265656e7472616e742063616c6c00600082015250565b6118658161169a565b811461187057600080fd5b50565b61187c816116ea565b811461188757600080fd5b5056fea26469706673582212204037befc2013c5fe4c8a048ee63a5c833a2362dcfad8cdf948b4843a013252fd64736f6c63430008040033",
  "linkReferences": {},
  "deployedLinkReferences": {}
}